{
  "contractName": "Voting",
  "abi": [
    {
      "constant": true,
      "inputs": [
        {
          "name": "",
          "type": "uint256"
        }
      ],
      "name": "voters",
      "outputs": [
        {
          "name": "voterId",
          "type": "uint256"
        },
        {
          "name": "exists",
          "type": "bool"
        },
        {
          "name": "hasVote",
          "type": "bool"
        }
      ],
      "payable": false,
      "stateMutability": "view",
      "type": "function"
    },
    {
      "constant": false,
      "inputs": [
        {
          "name": "_vid",
          "type": "uint256"
        }
      ],
      "name": "addVoter",
      "outputs": [],
      "payable": false,
      "stateMutability": "nonpayable",
      "type": "function"
    },
    {
      "constant": true,
      "inputs": [
        {
          "name": "_vid",
          "type": "uint256"
        }
      ],
      "name": "getVoter",
      "outputs": [
        {
          "name": "",
          "type": "uint256"
        },
        {
          "name": "",
          "type": "bool"
        },
        {
          "name": "",
          "type": "bool"
        }
      ],
      "payable": false,
      "stateMutability": "view",
      "type": "function"
    }
  ],
  "bytecode": "0x608060405234801561001057600080fd5b506102af806100206000396000f300608060405260043610610057576000357c0100000000000000000000000000000000000000000000000000000000900463ffffffff168063d07bff0c1461005c578063d8f7a0bb146100b3578063da58c7d9146100e0575b600080fd5b34801561006857600080fd5b5061008760048036038101908080359060200190929190505050610137565b604051808481526020018315151515815260200182151515158152602001935050505060405180910390f35b3480156100bf57600080fd5b506100de600480360381019080803590602001909291905050506101a8565b005b3480156100ec57600080fd5b5061010b6004803603810190808035906020019092919050505061023f565b604051808481526020018315151515815260200182151515158152602001935050505060405180910390f35b600080600060016000858152602001908152602001600020600001546001600086815260200190815260200160002060010160009054906101000a900460ff166001600087815260200190815260200160002060010160019054906101000a900460ff169250925092509193909250565b60606040519081016040528082815260200160011515815260200160011515815250600160008381526020019081526020016000206000820151816000015560208201518160010160006101000a81548160ff02191690831515021790555060408201518160010160016101000a81548160ff02191690831515021790555090505060056000815480929190600101919050555050565b60016020528060005260406000206000915090508060000154908060010160009054906101000a900460ff16908060010160019054906101000a900460ff169050835600a165627a7a7230582054a91335835eb3accd2f46739da369f6e8b0dba4866691e4d3c969cade27cabe0029",
  "source": "pragma solidity ^0.4.24;\n\ncontract Voting {\n  struct Candidate {\n    uint32 cId;\n    string name;\n    string party;\n    bool exists;\n  }\n\n  struct Vote {\n    uint32 vid;\n    uint32 candidateId;\n  }\n\n  struct Voter {\n    uint voterId;\n    bool exists;\n    bool hasVote;\n  }\n\n  mapping (uint => Candidate) candidates;\n  mapping (uint => Voter) public voters;\n  mapping (uint => Vote) votes;\n\n  uint32 numOfCandidates;\n  uint numOfVotes;\n  uint numVoters;\n\n  function addVoter(uint _vid) public {\n    voters[_vid] = Voter(_vid, true, true);\n    numVoters++;\n  }\n\n  function getVoter(uint _vid) external view returns (uint, bool, bool){\n    return (voters[_vid].voterId, voters[_vid].exists, voters[_vid].hasVote);\n  }\n\n}",
  "sourcePath": "/Users/michael.mcguirk/solidity/react-voting/contracts/Voting.sol",
  "compiler": {
    "name": "solc",
    "version": "0.4.24+commit.e67f0147.Emscripten.clang"
  },
  "schemaVersion": "2.0.0",
  "updatedAt": "2018-10-13T14:30:54.308Z"
}